:100000000C943A000C9457000C9457000C94570031
:100010000C9457000C9457000C9457000C94570004
:100020000C9457000C9457000C9457000C945700F4
:100030000C9457000C9457000C9457000C945700E4
:100040000C9457000C9457000C9457000C945700D4
:100050000C9457000C9457000C9457000C945700C4
:100060000C9457000C9457000C9457000C945700B4
:100070000C94570011241FBECFEFD4E0DEBFCDBFDC
:1000800013E0A0E0B1E0E8E0F4E102C005900D92D9
:10009000A239B107D9F723E0A2E9B3E001C01D926C
:1000A000A93CB207E1F70E94CE080C94020A0C9416
:1000B0000000E1E6F0E080E880831082A89584B734
:1000C000877F84BFE0E6F0E08081886180831082D2
:1000D00008950C94C0050C94E1050C94C6050C948D
:1000E000CC050C94D2050E94D2050E94CC05882331
:1000F000E1F38CE291E00197F1F70E94C0058111D4
:100100000C946B0008950C94E805CF93DF9300D016
:100110001F92CDB7DEB780ED90E09A83898388E0A7
:100120008B83509A589A0E945D068FE690E00E9459
:10013000F40581E090E00E944C0661E070E081E00F
:1001400090E00E9438060E942406CE0101960E948B
:10015000A8050F900F900F90DF91CF910895623016
:10016000710511F168F46130710551F5FC01FF274B
:1001700024A1892F8095922F982394A395A112C032
:100180006330710541F064307105D1F4FC01FF2743
:1001900084A1892B0FC0FC01FF2784A1892B84A394
:1001A00085A19095892309C0FC01FF2724A1892FEF
:1001B0008095822384A385A1892B85A381E008955E
:1001C00080E00895E82FF0E0EE0FFF1FEC56FC4FA3
:1001D0008081882321F0918181E0892702C080E01D
:1001E00090E081700895E82FF0E0EE0FFF1FEC56CD
:1001F000FC4F8081811102C0818102C080E090E0CB
:1002000081700895E82FF0E0EE0FFF1FEC56FC4FD1
:1002100080810895E82FF0E0EE0FFF1FEC56FC4FB1
:10022000908181E0892708956F927F928F929F92AB
:10023000AF92BF92CF92DF92EF92FF920F931F93F4
:10024000CF93DF9300D0CDB7DEB724E9622E23E051
:10025000722E3AE3C32E31E0D32E812C46E0942E49
:10026000F30180818183F601019111916F015801A1
:10027000BB24F50184A1E12EFF2425A130E02E212D
:100280003F2141E0232B09F440E090E08E219F21A3
:10029000892B29F0411108C023E030E00AC0411148
:1002A00006C021E030E005C024E030E002C022E0DA
:1002B00030E064E070E0C80129833A830E94AF0017
:1002C00062E070E0C8010E94AF00892D8A95F1F7C5
:1002D000F50183A190E0E822F92281E029813A81A9
:1002E000EF2809F080E0F3018083B901C8010E9482
:1002F000AF008394F2E06F0E711C85E08812B0CFDE
:100300000F900F90DF91CF911F910F91FF90EF9081
:10031000DF90CF90BF90AF909F908F907F906F9025
:1003200008950895CF93DF93EC010E9480049E010D
:1003300040E050E062E17AE780E090E00E94B2099C
:100340003093A1032093A003DF91CF910895809172
:100350009E0390919F030E948F0420919E033091F1
:100360009F038091A0039091A103820F931F90930C
:100370009F0380939E03089541E0611101C040E016
:10038000692F0C94A304692F0C94B90441E0611106
:1003900001C040E0692F0C94A3044F925F926F92CA
:1003A0007F928F929F92AF92BF92CF92DF92EF9205
:1003B000FF920F931F93CF93DF931F92CDB7DEB7BA
:1003C000862E942E5C01E62EF72E262F660F330B19
:1003D000281B310987FD3395072F072E000C110BC1
:1003E000091B110997FD139537FF03C077247A94F1
:1003F00002C07724739417FF03C066246A9402C076
:1004000066246394290137FF03C051944194510835
:1004100017FF03C011950195110940165106A4F06C
:100420006201D594C794F92EA81421F1692D8A2D63
:100430009F2D0E94C601C01AD10AD7FE03C0C40C6A
:10044000D51CF60CA70CF0CF6801D594C794E82E04
:10045000B71681F0692D8E2D9B2D79830E94C601E0
:10046000C418D5087981D7FE03C0C00ED11EE70C91
:10047000B60CEECF692DC7010F90DF91CF911F9180
:100480000F91FF90EF90DF90CF90BF90AF909F9033
:100490008F907F906F905F904F900C94C601FF9269
:1004A0000F931F93CF93DF93D82FF92E162FC72FBB
:1004B000042F792F0E94CD01402F6D2F7C2F8D2F7F
:1004C0009F2D0E94CD01402F612F7C2F812F9F2DCA
:1004D0000E94CD01402F612F7C2F8D2F9C2F0E94D9
:1004E000CD01DF91CF911F910F91FF9008950E9450
:1004F000E104E0E0F1E0118A14860895DF92EF92C2
:10050000FF920F931F93CF93DF93D82E7B01162F6B
:100510000F2D8091020190910301C0E00197A1F598
:100520000F2D0C1BE0910801F09109018181C81782
:10053000C0F4D0E08091080190910901FC01228172
:10054000D21768F42D2F4C2F6D2D0E946605682F51
:100550008D2F8E0D902F0E94C601DF5FEBCFCF5FF6
:10056000DFCFC0E0E0910801F09109018281C81756
:1005700040F460E08C2F8E0D902F0E94C601CF5F5B
:10058000F1CF015031C0CF5F1C2F1E0DE09108014B
:10059000F09109018181C817B0F4D0E08091080181
:1005A00090910901FC012281D21768F72D2F4C2F61
:1005B0006D2D0E946605682F812F9D2F9F0D0E9433
:1005C000C601DF5FEBCFC0E0E0910801F0910901C7
:1005D0008281C81740F460E0812F9C2F9F0D0E94FC
:1005E000C601CF5FF1CF1F5F812F902FDF91CF9199
:1005F0001F910F91FF90EF90DF9008951F93CF937D
:10060000DF93182FEC018C2F811B9991992351F0C6
:10061000892F0E947E02BC018C2F811B653014F44F
:1006200077FFF1CFDF91CF911F9108950F931F9323
:10063000CF93DF93EC019B0110920C0140930D01CD
:100640001092100100910801109109010115110586
:1006500009F449C0F8018181609106017091070198
:1006600090E00E948D09BC0180910A0190910B01DC
:100670000E949E09CB016AE070E00E948D09909370
:100680000F0180930E01309305012093040140E295
:1006900050E0BE0181E191E00E94F30980910001E8
:1006A000909101010197F9F4FE0101900020E9F712
:1006B000CF010197F8019181692F70E06F5F7F4F43
:1006C0008C1B0E948409815020910201309103010A
:1006D0002130310511F095E001C097E0981718F42A
:1006E0008EEF80931001DF91CF911F910F910895AC
:1006F00020910201309103012130310511F070E0A9
:1007000001C076E04FEF60E00E941603089590E08C
:1007100090930701809306010895909301018093BF
:10072000000108959093030180930201089590932E
:1007300009018093080108958091A2039091A30379
:1007400001969093A3038093A20320910E01309110
:100750000F018217930708F469C01092A303109247
:10076000A203E0910C01F0E0E050FF4F818981117C
:100770000AC080910D01823008F458C081508093E6
:100780000D0110920C0180910C0190E0FC01E050F1
:10079000FF4F2189222309F449C040910001509163
:1007A0000101209110014115510521F04130510501
:1007B00099F024C0211122C06091040170910501BB
:1007C0008F5E9E4F0E94FE0290E0019790910C0177
:1007D000890F80930C0112C0609104017091050192
:1007E00040910201509103014130510511F4720F03
:1007F00001C0621B8F5E9E4F0E94FE02809110011D
:100800008F5F80931001082E000C990BE091080176
:10081000F0910901218130E0281739073CF410924A
:10082000100180910C018F5F80930C010C94CD041A
:10083000CF93DF93C0E0D1E09B878A870E94E904D1
:1008400084E190E09F838E83DF91CF910C947702B7
:100850009C01FC01FF2784A1832B84A395A1832FF6
:100860008095892385A381E008950E9459000E9404
:10087000910184EF91E00E9492010E9485000E9404
:10088000CC0680E090E40E94280480E090E20E9480
:10089000280480E090E10E94280480E098E00E9413
:1008A000280480E094E00E94280480E092E00E9406
:1008B000280480E091E00E94280483E090E40E94F4
:1008C000280480E090E80E94280483E090E10E94E0
:1008D000280483E090E80E94280483E090E20E94CC
:1008E000280484EF91E00E94180484E491E00E94BF
:1008F000970384E10E94870381E090E00C948D03CC
:100900001092800084E08093810010928500109204
:100910008400089580918400909185000895AC0131
:1009200080918400909185009C01241B350B283E0A
:100930003340B0F708952091840030918500820FF4
:10094000931F0C948F04853098F4673088F421E06D
:1009500030E001C0220F6A95EAF7E82FF0E0EB558E
:10096000FC4F922F9095808189234111822B8083A7
:100970000895853080F4673070F4E82FF0E0EB558F
:10098000FC4F81E090E001C0880F6A95EAF7908102
:10099000982381E009F480E008956091A403E62F94
:1009A000F0E0EB55FC4F80810E941B058091A40371
:1009B0008F5F853018F48093A40308951092A403E8
:1009C0000895E5EAF3E01082118212821382148204
:1009D00008950E94F9040C94E1049C01FC01FF2796
:1009E00084A1832B84A395A1892F832B85A381E0E8
:1009F0000895CF93DF93CFE2D3E0899199910E943C
:100A0000ED0483E0CD33D807C1F783E090E40E9482
:100A1000ED0480E090E80E94ED0483E090E10E9404
:100A2000ED0483E090E80E94ED0483E090E2DF9122
:100A3000CF910C94ED04E091AA03F0E0EE0FFF1FBC
:100A4000EB5DFC4F20813181F901FF2795A1932BAC
:100A500095A3EFE2F3E097E020813181D901BB2734
:100A600095962C91959780FF03C03095232301C064
:100A7000232B95962C938695915032969111ECCF1D
:100A8000E62FF0E0EE0FFF1FEB5DFC4F80819181C0
:100A9000FC01FF2785A19095892385A36093AA0374
:100AA0000895009789F0FC012381621B67FD09C04E
:100AB000062E000C770B248130E081E0621773076B
:100AC0000CF080E08170089580E00895CF93DF936B
:100AD000FC01A62F822F309771F16181461758F5DE
:100AE0009281291740F59381A91BA7FD24C00A2EE6
:100AF000000CBB0BC481D0E0AC17BD07E4F40E942E
:100B00008409480F658170E0CD010E948D09069629
:100B1000242F269526952695E80FF91FE20FF11D43
:100B20009081892F90E0477002C0959587954A95EE
:100B3000E2F7817001C080E0DF91CF9108959C01C0
:100B4000215031093093CD0081508093CC0008951D
:100B5000CF93DF93EC01888199810E949F058A8160
:100B60009BEF980F943008F088E098E19093C900CB
:100B70008550880F8093CA0081E0DF91CF9108955E
:100B80008091C800881F8827881F08958091C80019
:100B900085FB882780F908958091C80086FB882707
:100BA00080F90895CF93C82F0E94C6058823E1F3EA
:100BB0009091C80090649093C800C093CE00CF91EC
:100BC00008958091C80087FFFCCF8091CE000895E2
:100BD000CF93DF93EC018991882319F00E94D2050D
:100BE000FACFDF91CF910895CF93DF931F92CDB7C6
:100BF000DEB79E012F5F3F4F45E06DE373E00E943B
:100C0000690691E0980F909331019981915097BDB9
:100C100018BC95B5977039F095B5209131012770C2
:100C2000987F922B95BD298130E0E82FF0E0E35CBE
:100C3000FC4FC901008002C0880F991F0A94E2F797
:100C40000F90DF91CF91089585B3897F85BB85B5DE
:100C5000909131019770887F892B85BD089585B566
:100C6000887F85BD089585B382FB882780F9089524
:100C7000009719F0019741F0089584B56295660FC9
:100C8000660F607C8F7305C084B563706295607F6A
:100C90008F7C682B64BD0895009741F0019759F44B
:100CA00084B58E7F84BD84B5826002C084B58C7F9C
:100CB00084BD81E0089580E0089514BC15BC16BC85
:100CC00018BC84B58E7F84BD84B5826084BD81E00C
:100CD0000895CF93DF93DC01562FFB0160E070E0B5
:100CE000C1E0D0E08E2F851B8417B8F49191BE012E
:100CF000092E02C0660F771F0A94E2F76F5F7F4FDD
:100D0000769567956A0F7B1F02C0769567959A95D1
:100D1000E2F76F3F710509F028F7F9016083DF9171
:100D2000CF91089581110DC08091AB03882329F0E4
:100D30009091AC0381E0892702C080E090E081704F
:100D4000089580E0089581110BC08091AB0381115B
:100D500003C08091AC0302C080E090E081700895F0
:100D600080E00895811103C08091AB03089580E075
:100D70000895811105C09091AB0381E08927089502
:100D800080E00895EBEAF3E08081818389B1881FD8
:100D90008827881F8083089557985F980895CF9378
:100DA000DF931092C6031092C503C1E0D0E00E9409
:100DB000A7010E94C2060E9414010E949C03C13038
:100DC000D10519F48BE793E002C08DE793E00E9410
:100DD000780380E00E94E200882329F0219729F718
:100DE000C2E0D0E0E4CF82E00E94E2008111F6CFC1
:100DF00084E00E94E2008823D1F2219721F4DF9160
:100E0000CF910C945A08DF91CF9108958FE793E02A
:100E10000E9478038CE18093B4031092C70382E0B0
:100E20008093340183E0809333011092C6031092C3
:100E3000C5030E94A7010E94C2060E9414010E94DD
:100E40009C0380E00E949206882399F30E94770217
:100E50000C94CF06E2E4F3E021913191D901BB2754
:100E600095969C919597932B95969C9393E0EC3453
:100E7000F90791F7E62FF0E0EE0FFF1FEE5BFC4F56
:100E800020813181F901FF2795A1232F20959223FD
:100E900095A3ECE4F3E020E030E090E0AC01022E1A
:100EA00002C0559547950A94E2F740FF0AC0408179
:100EB0005181DA01BB2795964C9195975095452322
:100EC00008C040815181DA01BB2795964C919597D6
:100ED000452B95964C932F5F3F4F32962730310527
:100EE000E9F6089580E00E94E200882319F08DE47D
:100EF0008093320182E00E94E200882319F082E5AB
:100F00008093320181E00E94E200882319F08EE490
:100F10008093320183E00E94E200882319F080E58B
:100F20008093320184E00E94E200882319F08AE570
:100F30008093320108958091C5039091C603843651
:100F4000910558F46091C703E62FF0E0EE54FC4F92
:100F500080810E942A070E94A7018091C503909179
:100F6000C603019668EC70E00E949E099093C60348
:100F70008093C50308958091C7038F5F853018F46F
:100F80008093C70308951092C70308956091C70323
:100F9000E62FF0E0E954FC4F80810E942A070C9470
:100FA000A7016091C703E62FF0E0E355FC4F808175
:100FB0000E942A070C94A7011F93CF93DF931F92DF
:100FC000CDB7DEB7182F81E090E069830E948D03D2
:100FD000698183EB860F823030F06A3521F0862FED
:100FE0008D7F803559F5161303C084E490E022C04C
:100FF0001D3439F46E3411F06235D1F487E590E098
:1010000019C0123519F46E3451F4F8CF103519F4B3
:10101000623561F4F3CF1E3429F4603579F36A3513
:1010200039F4ECCF1A3521F4603541F36D3431F3E6
:101030008CE490E09093BD038093BC030F90DF910C
:10104000CF911F9108950F931F93CF93DF9300D0FB
:10105000CDB7DEB78C0180E090E00E948D030735AC
:10106000110519F00630110519F48DE893E00DC053
:101070000C34110519F00830110519F48FE893E0CC
:1010800004C009831A82CE0101960E9478030F9052
:101090000F90DF91CF911F910F91089581E090E023
:1010A0002091C1033091C2032130310511F080E05D
:1010B00090E0089581E090E09093C2038093C10393
:1010C0000895CF93DF9300D0CDB7DEB70E94910192
:1010D0000E94CC0680E090E00E948D030E94A70150
:1010E0000E9414010E949C030E94C206809132015A
:1010F00089831A82CE0101960E9478030E947207AA
:1011000080E00E949206882349F30F900F90DF91B0
:10111000CF9108958091C1039091C203892B19F456
:101120008091320115C06091C003809132010E940C
:10113000DC078091BC039091BD038735910511F4C4
:101140008CE406C08C34910511F487E501C084E479
:101150000C9473008091C1039091C203019789F4AC
:101160000E946900892BC9F00E946B008093C00324
:10117000882399F081E090E09093BF038093BE03B1
:1011800008950E946900892B41F00E946B009093A2
:10119000BD038093BC03892B69F708950E94350431
:1011A0008AE593E00E947803C0E00E94C2060E9494
:1011B000A7012C2F30E0F901EB5CFE4F4081E0915C
:1011C0009203F0919303EE0FFF1FEE5BFC4F8081C3
:1011D0009181FC01FF2785A1892B85A3ECE4F3E035
:1011E00080E090E050E0BA01082E02C07595679546
:1011F0000A94E2F760FF0AC060817181DB01BB27BE
:1012000095966C9195977095672308C06081718160
:10121000DB01BB2795966C919597672B95966C9300
:101220000196329687309105F1F6F901EE0FFF1F16
:10123000EE5BFC4F80819181FC01FF2785A1909599
:10124000892385A33093930320939203CF5FC53006
:1012500008F0C0E080E00E949206882309F4A5CF40
:101260000E94A7010E949C030E9414010E94C206D2
:1012700080E00E949206882399F30E9477020E94E0
:1012800006070E946108C0E0D0E00E949C038091A4
:10129000C1039091C203892B31F4C530D1051CF4F0
:1012A0000E948A0821968091C1039091C203019700
:1012B00041F48091BE039091BF03892B11F40E94E9
:1012C000AA088091C1039091C203019741F48091D3
:1012D000BE039091BF03019711F40E948A08809188
:1012E000C1039091C203892B11F40E94AA08809136
:1012F000BE039091BF03019741F68091BC0390918A
:10130000BD030E942308C1CF002480FD060E660F96
:1013100011F08695D1F7802D08950024552704C03B
:10132000080E591F880F991F009729F07695679529
:10133000B8F37105B9F7802D952F0895AA1BBB1B33
:1013400051E107C0AA1FBB1FA617B70710F0A61BC5
:10135000B70B881F991F5A95A9F780959095BC01E6
:10136000CD010895052E97FB1EF400940E94C90933
:1013700057FD07D00E94D10907FC03D04EF40C940E
:10138000C90950954095309521953F4F4F4F5F4F7C
:10139000089590958095709561957F4F8F4F9F4FE1
:1013A0000895A1E21A2EAA1BBB1BFD010DC0AA1FA6
:1013B000BB1FEE1FFF1FA217B307E407F50720F0BE
:1013C000A21BB30BE40BF50B661F771F881F991F39
:1013D0001A9469F760957095809590959B01AC0182
:1013E000BD01CF010895FB01DC014150504048F0A0
:1013F00001900D920020C9F701C01D92415050404C
:08140000E0F70895F894FFCF16
:1014080000000000000014000000000000000000C0
:1014180000000000000000000000000000000000C4
:1014280000000000000000000000000000000000B4
:1014380000014D030230464046300380034003203C
:1014480000800310010507205F050000000000C6AA
:10145800186380014A290000004A7DF59502C417E7
:10146800471F01632222320626155193058608007C
:1014780000008808210802822084880080545709C7
:101488000080904F0800000060880000800F000076
:101498000000008C0100222202002EE63AA303C4B9
:1014A800104288032E4244C4072E4207A30388A98A
:1014B800F411023F8407A3032E8617A3033F424477
:1014C80008012E4617A3032E460FA303C018600C6D
:1014D80000C0186088008888200802007CF001009D
:1014E80082208888002E424400012E425BAB0344D0
:1014F800C51F63042FC617E3032E8610A2032FC649
:1015080018E3033F8417C2073F841742002E861E44
:10151800A30731C61F63048E10428803104218A324
:10152800033195515204218410C20771D71A6304FC
:1015380071D61C63042EC618A3032FC61742002EAB
:10154800C65893052FC61763042E0607A3039F10DA
:1015580042080131C618A30331C618150131C65A0D
:10156800AB02312AA26204312A4208011F2222C298
:1015780007278410C20120088220000E21849003CE
:101588004445000000000000C00782200000000061
:1015980038E8A30721B419E30300B810A20310DA4E
:1015A8001CA30700B8F883034C8A238400C0C7E84B
:1015B800A10321B4196304041842880308308492F3
:1015C8000121A4324A02861042880300AC5A6304FF
:1015D80000B419630400B818A30300BCF842000063
:1015E800D8EC210400B419420000B8E0E003421C22
:1015F80021240300C418B30500C418150100C45AF7
:10160800AB02004445540400C4E8A103007C44C470
:10161800078810410802841042080182104488009B
:1016280000888A0000034000800310038003200024
:10163800400020001000080004000200010003061A
:10164800080A0340008003100380032000400020A4
:10165800001000080004000200014D6F6E6B6579F0
:101668002D5069726174652D526F626F742D4E69C9
:101678006E6A612D5A6F6D626965003100320043F0
:10168800484F4F534520504C415945520057004C44
:02169800000050
:00000001FF
