:100000000C943A000C9457000C9457000C94570031
:100010000C9457000C9457000C9457000C94570004
:100020000C9457000C9457000C9457000C945700F4
:100030000C9457000C9457000C9457000C945700E4
:100040000C9457000C9457000C9457000C945700D4
:100050000C9457000C9457000C9457000C945700C4
:100060000C9457000C9457000C9457000C945700B4
:100070000C94570011241FBECFEFD4E0DEBFCDBFDC
:1000800013E0A0E0B1E0ECE2F2E102C005900D92D5
:10009000A439B107D9F723E0A4E9B3E001C01D9268
:1000A000A63CB207E1F70E9420080C9414090C94B6
:1000B0000000E1E6F0E080E880831082A89584B734
:1000C000877F84BFE0E6F0E08081886180831082D2
:1000D00008950C94C0050C94E1050C94C6050C948D
:1000E000CC050C94D2050E94D2050E94CC05882331
:1000F000E1F38CE291E00197F1F70E94C0058111D4
:100100000C946B0008950C94E805CF93DF9300D016
:100110001F92CDB7DEB780ED90E09A83898388E0A7
:100120008B83509A589A0E945D068FE690E00E9459
:10013000F40581E090E00E944C0661E070E081E00F
:1001400090E00E9438060E942406CE0101960E948B
:10015000A8050F900F900F90DF91CF910895623016
:10016000710511F168F46130710551F5FC01FF274B
:1001700024A1892F8095922F982394A395A112C032
:100180006330710541F064307105D1F4FC01FF2743
:1001900084A1892B0FC0FC01FF2784A1892B84A394
:1001A00085A19095892309C0FC01FF2724A1892FEF
:1001B0008095822384A385A1892B85A381E008955E
:1001C00080E00895E82FF0E0EE0FFF1FEA56FC4FA5
:1001D0008081882321F0918181E0892702C080E01D
:1001E00090E081700895E82FF0E0EE0FFF1FEA56CF
:1001F000FC4F8081811102C0818102C080E090E0CB
:1002000081700895E82FF0E0EE0FFF1FEA56FC4FD3
:1002100080810895E82FF0E0EE0FFF1FEA56FC4FB3
:10022000908181E0892708956F927F928F929F92AB
:10023000AF92BF92CF92DF92EF92FF920F931F93F4
:10024000CF93DF9300D0CDB7DEB726E9622E23E04F
:10025000722E39E3C32E31E0D32E812C46E0942E4A
:10026000F30180818183F601019111916F015801A1
:10027000BB24F50184A1E12EFF2425A130E02E212D
:100280003F2141E0232B09F440E090E08E219F21A3
:10029000892B29F0411108C023E030E00AC0411148
:1002A00006C021E030E005C024E030E002C022E0DA
:1002B00030E064E070E0C80129833A830E94AF0017
:1002C00062E070E0C8010E94AF00892D8A95F1F7C5
:1002D000F50183A190E0E822F92281E029813A81A9
:1002E000EF2809F080E0F3018083B901C8010E9482
:1002F000AF008394F2E06F0E711C85E08812B0CFDE
:100300000F900F90DF91CF911F910F91FF90EF9081
:10031000DF90CF90BF90AF909F908F907F906F9025
:1003200008950895CF93DF93EC010E9480049E010D
:1003300040E050E062E17AE780E090E00E94C4088B
:100340003093A3032093A203DF91CF91089580916E
:10035000A0039091A1030E948F042091A0033091EB
:10036000A1038091A2039091A303820F931F909306
:10037000A1038093A003089541E0611101C040E012
:10038000692F0C94A304692F0C94B90441E0611106
:1003900001C040E0692F0C94A3044F925F926F92CA
:1003A0007F928F929F92AF92BF92CF92DF92EF9205
:1003B000FF920F931F93CF93DF931F92CDB7DEB7BA
:1003C000862E942E5C01E62EF72E262F660F330B19
:1003D000281B310987FD3395072F072E000C110BC1
:1003E000091B110997FD139537FF03C077247A94F1
:1003F00002C07724739417FF03C066246A9402C076
:1004000066246394290137FF03C051944194510835
:1004100017FF03C011950195110940165106A4F06C
:100420006201D594C794F92EA81421F1692D8A2D63
:100430009F2D0E94C601C01AD10AD7FE03C0C40C6A
:10044000D51CF60CA70CF0CF6801D594C794E82E04
:10045000B71681F0692D8E2D9B2D79830E94C601E0
:10046000C418D5087981D7FE03C0C00ED11EE70C91
:10047000B60CEECF692DC7010F90DF91CF911F9180
:100480000F91FF90EF90DF90CF90BF90AF909F9033
:100490008F907F906F905F904F900C94C601FF9269
:1004A0000F931F93CF93DF93D82FF92E162FC72FBB
:1004B000042F792F0E94CD01402F6D2F7C2F8D2F7F
:1004C0009F2D0E94CD01402F612F7C2F812F9F2DCA
:1004D0000E94CD01402F612F7C2F8D2F9C2F0E94D9
:1004E000CD01DF91CF911F910F91FF9008950E9450
:1004F000E104E0E0F1E0118A14860895DF92EF92C2
:10050000FF920F931F93CF93DF93D82E7B01162F6B
:100510000F2D8091020190910301C0E00197A1F598
:100520000F2D0C1BE0910801F09109018181C81782
:10053000C0F4D0E08091080190910901FC01228172
:10054000D21768F42D2F4C2F6D2D0E946605682F51
:100550008D2F8E0D902F0E94C601DF5FEBCFCF5FF6
:10056000DFCFC0E0E0910801F09109018281C81756
:1005700040F460E08C2F8E0D902F0E94C601CF5F5B
:10058000F1CF015031C0CF5F1C2F1E0DE09108014B
:10059000F09109018181C817B0F4D0E08091080181
:1005A00090910901FC012281D21768F72D2F4C2F61
:1005B0006D2D0E946605682F812F9D2F9F0D0E9433
:1005C000C601DF5FEBCFC0E0E0910801F0910901C7
:1005D0008281C81740F460E0812F9C2F9F0D0E94FC
:1005E000C601CF5FF1CF1F5F812F902FDF91CF9199
:1005F0001F910F91FF90EF90DF9008951F93CF937D
:10060000DF93182FEC018C2F811B9991992351F0C6
:10061000892F0E947E02BC018C2F811B653014F44F
:1006200077FFF1CFDF91CF911F9108950F931F9323
:10063000CF93DF93EC019B0110920C0140930D01CD
:100640001092100100910801109109010115110586
:1006500009F449C0F8018181609106017091070198
:1006600090E00E949F08BC0180910A0190910B01CB
:100670000E94B008CB016AE070E00E949F0890934E
:100680000F0180930E01309305012093040140E295
:1006900050E0BE0181E191E00E94050980910001D6
:1006A000909101010197F9F4FE0101900020E9F712
:1006B000CF010197F8019181692F70E06F5F7F4F43
:1006C0008C1B0E94960881502091020130910301F9
:1006D0002130310511F095E001C097E0981718F42A
:1006E0008EEF80931001DF91CF911F910F910895AC
:1006F00020910201309103012130310511F070E0A9
:1007000001C076E04FEF60E00E941603089590E08C
:1007100090930701809306010895909301018093BF
:10072000000108959093030180930201089590932E
:1007300009018093080108958091A4039091A50375
:1007400001969093A5038093A40320910E0130910C
:100750000F018217930708F469C01092A503109245
:10076000A403E0910C01F0E0E050FF4F818981117A
:100770000AC080910D01823008F458C081508093E6
:100780000D0110920C0180910C0190E0FC01E050F1
:10079000FF4F2189222309F449C040910001509163
:1007A0000101209110014115510521F04130510501
:1007B00099F024C0211122C06091040170910501BB
:1007C0008F5E9E4F0E94FE0290E0019790910C0177
:1007D000890F80930C0112C0609104017091050192
:1007E00040910201509103014130510511F4720F03
:1007F00001C0621B8F5E9E4F0E94FE02809110011D
:100800008F5F80931001082E000C990BE091080176
:10081000F0910901218130E0281739073CF410924A
:10082000100180910C018F5F80930C010C94CD041A
:10083000CF93DF93C0E0D1E09B878A870E94E904D1
:1008400084E190E09F838E83DF91CF910C947702B7
:100850009C01FC01FF2784A1832B84A395A1832FF6
:100860008095892385A381E008950E9459000E9404
:10087000910184EF91E00E9492010E9485000E9404
:10088000CC0680E090E40E94280480E090E20E9480
:10089000280480E090E10E94280480E098E00E9413
:1008A000280480E094E00E94280480E092E00E9406
:1008B000280480E091E00E94280483E090E40E94F4
:1008C000280480E090E80E94280483E090E10E94E0
:1008D000280483E090E80E94280483E090E20E94CC
:1008E000280484EF91E00E94180483E491E00E94C0
:1008F000970384E10E94870381E090E00C948D03CC
:100900001092800084E08093810010928500109204
:100910008400089580918400909185000895AC0131
:1009200080918400909185009C01241B350B283E0A
:100930003340B0F708952091840030918500820FF4
:10094000931F0C948F04853098F4673088F421E06D
:1009500030E001C0220F6A95EAF7E82FF0E0E95590
:10096000FC4F922F9095808189234111822B8083A7
:100970000895853080F4673070F4E82FF0E0E95591
:10098000FC4F81E090E001C0880F6A95EAF7908102
:10099000982381E009F480E008956091A603E62F92
:1009A000F0E0E955FC4F80810E941B058091A60371
:1009B0008F5F853018F48093A60308951092A603E4
:1009C0000895E7EAF3E01082118212821382148202
:1009D00008950E94F9040C94E1049C01FC01FF2796
:1009E00084A1832B84A395A1892F832B85A381E0E8
:1009F0000895CF93DF93CEE2D3E0899199910E943D
:100A0000ED0483E0CC33D807C1F783E090E40E9483
:100A1000ED0480E090E80E94ED0483E090E10E9404
:100A2000ED0483E090E80E94ED0483E090E2DF9122
:100A3000CF910C94ED04E091AC03F0E0EE0FFF1FBA
:100A4000EC5DFC4F20813181F901FF2795A1932BAB
:100A500095A3EEE2F3E097E020813181D901BB2735
:100A600095962C91959780FF03C03095232301C064
:100A7000232B95962C938695915032969111ECCF1D
:100A8000E62FF0E0EE0FFF1FEC5DFC4F80819181BF
:100A9000FC01FF2785A19095892385A36093AC0372
:100AA0000895009789F0FC012381621B67FD09C04E
:100AB000062E000C770B248130E081E0621773076B
:100AC0000CF080E08170089580E00895CF93DF936B
:100AD000FC01A62F822F309771F16181461758F5DE
:100AE0009281291740F59381A91BA7FD24C00A2EE6
:100AF000000CBB0BC481D0E0AC17BD07E4F40E942E
:100B00009608480F658170E0CD010E949F08069607
:100B1000242F269526952695E80FF91FE20FF11D43
:100B20009081892F90E0477002C0959587954A95EE
:100B3000E2F7817001C080E0DF91CF9108959C01C0
:100B4000215031093093CD0081508093CC0008951D
:100B5000CF93DF93EC01888199810E949F058A8160
:100B60009BEF980F943008F088E098E19093C900CB
:100B70008550880F8093CA0081E0DF91CF9108955E
:100B80008091C800881F8827881F08958091C80019
:100B900085FB882780F908958091C80086FB882707
:100BA00080F90895CF93C82F0E94C6058823E1F3EA
:100BB0009091C80090649093C800C093CE00CF91EC
:100BC00008958091C80087FFFCCF8091CE000895E2
:100BD000CF93DF93EC018991882319F00E94D2050D
:100BE000FACFDF91CF910895CF93DF931F92CDB7C6
:100BF000DEB79E012F5F3F4F45E06CE373E00E943C
:100C0000690691E0980F909331019981915097BDB9
:100C100018BC95B5977039F095B5209131012770C2
:100C2000987F922B95BD298130E0E82FF0E0E45CBD
:100C3000FC4FC901008002C0880F991F0A94E2F797
:100C40000F90DF91CF91089585B3897F85BB85B5DE
:100C5000909131019770887F892B85BD089585B566
:100C6000887F85BD089585B382FB882780F9089524
:100C7000009719F0019741F0089584B56295660FC9
:100C8000660F607C8F7305C084B563706295607F6A
:100C90008F7C682B64BD0895009741F0019759F44B
:100CA00084B58E7F84BD84B5826002C084B58C7F9C
:100CB00084BD81E0089580E0089514BC15BC16BC85
:100CC00018BC84B58E7F84BD84B5826084BD81E00C
:100CD0000895CF93DF93DC01562FFB0160E070E0B5
:100CE000C1E0D0E08E2F851B8417B8F49191BE012E
:100CF000092E02C0660F771F0A94E2F76F5F7F4FDD
:100D0000769567956A0F7B1F02C0769567959A95D1
:100D1000E2F76F3F710509F028F7F9016083DF9171
:100D2000CF91089581110DC08091AD03882329F0E2
:100D30009091AE0381E0892702C080E090E081704D
:100D4000089580E0089581110BC08091AD03811159
:100D500003C08091AE0302C080E090E081700895EE
:100D600080E00895811103C08091AD03089580E073
:100D70000895811105C09091AD0381E08927089500
:100D800080E00895EDEAF3E08081818389B1881FD6
:100D90008827881F8083089557985F9808958DE667
:100DA00093E00E9478038CE18093B6031092C40311
:100DB00082E08093330183E0809332011092C30379
:100DC0001092C2030E94A7010E94C2060E94140151
:100DD0000E949C0380E00E949206882399F30C9461
:100DE0007702E1E4F3E021913191D901BB27959697
:100DF0009C919597932B95969C9393E0EB34F907F0
:100E000091F7E62FF0E0EE0FFF1FEF5BFC4F208124
:100E10003181F901FF2795A1232F2095922395A3D6
:100E2000EBE4F3E020E030E090E0AC01022E02C001
:100E3000559547950A94E2F740FF0AC040815181D9
:100E4000DA01BB2795964C9195975095452308C09C
:100E500040815181DA01BB2795964C919597452B9E
:100E600095964C932F5F3F4F329627303105E9F628
:100E70000895CF93C82F80E00E94E2008823B1F04C
:100E800080913201482F50E021E030E02C1B3109E5
:100E9000241735075CF4E0913301F0E0EC54FC4F8B
:100EA00090819695908381508093320182E00E94D8
:100EB000E2008823A9F0209132018C2F90E0049663
:100EC000422F50E0841795075CF0E0913301F0E089
:100ED000EC54FC4F8081880F80832F5F2093320178
:100EE00081E00E94E200882399F0E0913301E43030
:100EF00078F4AE2FB0E0AC54BC4F8C918093C50316
:100F00001C92EF5FE0933301F0E0EC54FC4F8083E0
:100F100083E00E94E200882399F0E0913301EE2300
:100F200079F0AE2FB0E0AC54BC4F8C918093C503E8
:100F30001C92E150E0933301F0E0EC54FC4F8083CD
:100F4000CF9108958091C2039091C3038436910597
:100F500058F46091C403E62FF0E0EC54FC4F80811C
:100F60000E94F1060E94A7018091C2039091C303E1
:100F7000019668EC70E00E94B0089093C3038093E0
:100F8000C20308958091C4038F5F853018F4809365
:100F9000C40308951092C40308956091C403E62F1A
:100FA000F0E0E754FC4F80810E94F1060C94A70109
:100FB0006091C403E62FF0E0E155FC4F80810E9470
:100FC000F1060C94A7011F93CF93DF931F92CDB727
:100FD000DEB7182F81E090E069830E948D0369815C
:100FE000161303C08BE793E012C0133529F4603564
:100FF00061F480E893E00BC0103519F4623529F4F0
:10100000F8CF123511F46335A1F389E893E00F901E
:10101000DF91CF911F910C94780381E090E02091B3
:10102000BE033091BF032130310511F080E090E024
:10103000089581E090E09093BF038093BE030895EC
:10104000CF930E94350489E593E00E947803C0E0C5
:101050000E94C2060E94A7012C2F30E0F901EC5C2F
:10106000FE4F4081E0919403F0919503EE0FFF1F36
:10107000EF5BFC4F80819181FC01FF2785A1892BCB
:1010800085A3EBE4F3E080E090E050E0BA01082EA5
:1010900002C0759567950A94E2F760FF0AC0608107
:1010A0007181DB01BB2795966C91959770956723AD
:1010B00008C060817181DB01BB2795966C91959783
:1010C000672B95966C930196329687309105F1F6D1
:1010D000F901EE0FFF1FEF5BFC4F80819181FC0156
:1010E000FF2785A19095892385A3309395032093AD
:1010F0009403CF5FC53008F0C0E080E00E94920604
:10110000882309F4A5CF0E94A7010E949C030E9496
:1011100014010E94C20680E00E949206882399F37F
:101120000E9477020E94CF06CF910895002480FD8F
:10113000060E660F11F08695D1F7802D08950024D4
:10114000552704C0080E591F880F991F009729F0D2
:1011500076956795B8F37105B9F7802D952F0895A9
:10116000AA1BBB1B51E107C0AA1FBB1FA617B707CD
:1011700010F0A61BB70B881F991F5A95A9F78095E9
:101180009095BC01CD010895052E97FB1EF40094A7
:101190000E94DB0857FD07D00E94E30807FC03D03C
:1011A0004EF40C94DB0850954095309521953F4FB7
:1011B0004F4F5F4F089590958095709561957F4F43
:1011C0008F4F9F4F0895A1E21A2EAA1BBB1BFD0152
:1011D0000DC0AA1FBB1FEE1FFF1FA217B307E40716
:1011E000F50720F0A21BB30BE40BF50B661F771F6E
:1011F000881F991F1A9469F760957095809590954E
:101200009B01AC01BD01CF010895FB01DC01415000
:10121000504048F001900D920020C9F701C01D9286
:0C12200041505040E0F70895F894FFCFD3
:10122C00000000000000140000000000000000009E
:10123C0000000000000000000000000000000000A2
:10124C000000000000000000000000000000000092
:10125C000001030230464046300380034003200067
:10126C00800310010507205F050000000000C61870
:10127C006380014A290000004A7DF59502C4174796
:10128C001F016322223206261551930586080000A1
:10129C0000880821080282208488008054570900A5
:1012AC0080904F0800000060880000800F00000054
:1012BC0000008C0100222202002EE63AA303C41087
:1012CC004288032E4244C4072E4207A30388A9F484
:1012DC0011023F8407A3032E8617A3033F42440841
:1012EC00012E4617A3032E460FA303C018600C0053
:1012FC00C0186088008888200802007CF0010082F9
:10130C00208888002E424400012E425BAB0344C56A
:10131C001F63042FC617E3032E8610A2032FC618D3
:10132C00E3033F8417C2073F841742002E861EA397
:10133C000731C61F63048E10428803104218A303A2
:10134C003195515204218410C20771D71A6304716C
:10135C00D61C63042EC618A3032FC61742002EC634
:10136C005893052FC61763042E0607A3039F10423C
:10137C00080131C618A30331C618150131C65AAB82
:10138C0002312AA26204312A4208011F2222C2071A
:10139C00278410C20120088220000E21849003446F
:1013AC0045000000000000C007822000000000384B
:1013BC00E8A30721B419E30300B810A20310DA1C48
:1013CC00A30700B8F883034C8A238400C0C7E8A1A4
:1013DC000321B41963040418428803083084920171
:1013EC0021A4324A02861042880300AC5A630400DE
:1013FC00B419630400B818A30300BCF8420000D869
:10140C00EC210400B419420000B8E0E003421C21B6
:10141C00240300C418B30500C418150100C45AAB4A
:10142C0002004445540400C4E8A103007C44C407F2
:10143C008810410802841042080182104488000080
:10144C00888A0000034000800310038003200040C2
:10145C000020001000080004000200010003060830
:10146C000A0340008003100380032000400020008A
:10147C001000080004000200015041504552205356
:10148C00434953534F525320524F434B0043484F01
:10149C004F534520504C415945520044524157003E
:1014AC00594F552057494E2100594F55204C4F53F9
:0414BC0045210000C6
:00000001FF
